{
  "contractName": "OppayNFT",
  "abi": [
    {
      "inputs": [],
      "stateMutability": "nonpayable",
      "type": "constructor"
    },
    {
      "anonymous": false,
      "inputs": [
        {
          "indexed": true,
          "internalType": "address",
          "name": "owner",
          "type": "address"
        },
        {
          "indexed": true,
          "internalType": "address",
          "name": "approved",
          "type": "address"
        },
        {
          "indexed": true,
          "internalType": "uint256",
          "name": "tokenId",
          "type": "uint256"
        }
      ],
      "name": "Approval",
      "type": "event"
    },
    {
      "anonymous": false,
      "inputs": [
        {
          "indexed": true,
          "internalType": "address",
          "name": "owner",
          "type": "address"
        },
        {
          "indexed": true,
          "internalType": "address",
          "name": "operator",
          "type": "address"
        },
        {
          "indexed": false,
          "internalType": "bool",
          "name": "approved",
          "type": "bool"
        }
      ],
      "name": "ApprovalForAll",
      "type": "event"
    },
    {
      "anonymous": false,
      "inputs": [
        {
          "indexed": true,
          "internalType": "address",
          "name": "from",
          "type": "address"
        },
        {
          "indexed": true,
          "internalType": "address",
          "name": "to",
          "type": "address"
        },
        {
          "indexed": true,
          "internalType": "uint256",
          "name": "tokenId",
          "type": "uint256"
        }
      ],
      "name": "Transfer",
      "type": "event"
    },
    {
      "inputs": [
        {
          "internalType": "address",
          "name": "to",
          "type": "address"
        },
        {
          "internalType": "uint256",
          "name": "tokenId",
          "type": "uint256"
        }
      ],
      "name": "approve",
      "outputs": [],
      "stateMutability": "nonpayable",
      "type": "function"
    },
    {
      "inputs": [
        {
          "internalType": "address",
          "name": "owner",
          "type": "address"
        }
      ],
      "name": "balanceOf",
      "outputs": [
        {
          "internalType": "uint256",
          "name": "",
          "type": "uint256"
        }
      ],
      "stateMutability": "view",
      "type": "function",
      "constant": true
    },
    {
      "inputs": [
        {
          "internalType": "uint256",
          "name": "tokenId",
          "type": "uint256"
        }
      ],
      "name": "getApproved",
      "outputs": [
        {
          "internalType": "address",
          "name": "",
          "type": "address"
        }
      ],
      "stateMutability": "view",
      "type": "function",
      "constant": true
    },
    {
      "inputs": [
        {
          "internalType": "address",
          "name": "owner",
          "type": "address"
        },
        {
          "internalType": "address",
          "name": "operator",
          "type": "address"
        }
      ],
      "name": "isApprovedForAll",
      "outputs": [
        {
          "internalType": "bool",
          "name": "",
          "type": "bool"
        }
      ],
      "stateMutability": "view",
      "type": "function",
      "constant": true
    },
    {
      "inputs": [],
      "name": "name",
      "outputs": [
        {
          "internalType": "string",
          "name": "",
          "type": "string"
        }
      ],
      "stateMutability": "view",
      "type": "function",
      "constant": true
    },
    {
      "inputs": [
        {
          "internalType": "uint256",
          "name": "tokenId",
          "type": "uint256"
        }
      ],
      "name": "ownerOf",
      "outputs": [
        {
          "internalType": "address",
          "name": "",
          "type": "address"
        }
      ],
      "stateMutability": "view",
      "type": "function",
      "constant": true
    },
    {
      "inputs": [
        {
          "internalType": "address",
          "name": "from",
          "type": "address"
        },
        {
          "internalType": "address",
          "name": "to",
          "type": "address"
        },
        {
          "internalType": "uint256",
          "name": "tokenId",
          "type": "uint256"
        }
      ],
      "name": "safeTransferFrom",
      "outputs": [],
      "stateMutability": "nonpayable",
      "type": "function"
    },
    {
      "inputs": [
        {
          "internalType": "address",
          "name": "from",
          "type": "address"
        },
        {
          "internalType": "address",
          "name": "to",
          "type": "address"
        },
        {
          "internalType": "uint256",
          "name": "tokenId",
          "type": "uint256"
        },
        {
          "internalType": "bytes",
          "name": "_data",
          "type": "bytes"
        }
      ],
      "name": "safeTransferFrom",
      "outputs": [],
      "stateMutability": "nonpayable",
      "type": "function"
    },
    {
      "inputs": [
        {
          "internalType": "address",
          "name": "operator",
          "type": "address"
        },
        {
          "internalType": "bool",
          "name": "approved",
          "type": "bool"
        }
      ],
      "name": "setApprovalForAll",
      "outputs": [],
      "stateMutability": "nonpayable",
      "type": "function"
    },
    {
      "inputs": [
        {
          "internalType": "bytes4",
          "name": "interfaceId",
          "type": "bytes4"
        }
      ],
      "name": "supportsInterface",
      "outputs": [
        {
          "internalType": "bool",
          "name": "",
          "type": "bool"
        }
      ],
      "stateMutability": "view",
      "type": "function",
      "constant": true
    },
    {
      "inputs": [],
      "name": "symbol",
      "outputs": [
        {
          "internalType": "string",
          "name": "",
          "type": "string"
        }
      ],
      "stateMutability": "view",
      "type": "function",
      "constant": true
    },
    {
      "inputs": [
        {
          "internalType": "uint256",
          "name": "tokenId",
          "type": "uint256"
        }
      ],
      "name": "tokenURI",
      "outputs": [
        {
          "internalType": "string",
          "name": "",
          "type": "string"
        }
      ],
      "stateMutability": "view",
      "type": "function",
      "constant": true
    },
    {
      "inputs": [
        {
          "internalType": "address",
          "name": "from",
          "type": "address"
        },
        {
          "internalType": "address",
          "name": "to",
          "type": "address"
        },
        {
          "internalType": "uint256",
          "name": "tokenId",
          "type": "uint256"
        }
      ],
      "name": "transferFrom",
      "outputs": [],
      "stateMutability": "nonpayable",
      "type": "function"
    },
    {
      "inputs": [
        {
          "internalType": "string",
          "name": "_tokenURI",
          "type": "string"
        },
        {
          "internalType": "string",
          "name": "_tokenName",
          "type": "string"
        }
      ],
      "name": "mint",
      "outputs": [
        {
          "internalType": "uint256",
          "name": "",
          "type": "uint256"
        }
      ],
      "stateMutability": "nonpayable",
      "type": "function"
    },
    {
      "inputs": [],
      "name": "totalSupply",
      "outputs": [
        {
          "internalType": "uint256",
          "name": "",
          "type": "uint256"
        }
      ],
      "stateMutability": "view",
      "type": "function",
      "constant": true
    },
    {
      "inputs": [
        {
          "internalType": "uint256",
          "name": "_token",
          "type": "uint256"
        }
      ],
      "name": "tokens",
      "outputs": [
        {
          "internalType": "string",
          "name": "",
          "type": "string"
        },
        {
          "internalType": "string",
          "name": "",
          "type": "string"
        },
        {
          "internalType": "uint256",
          "name": "",
          "type": "uint256"
        }
      ],
      "stateMutability": "view",
      "type": "function",
      "constant": true
    },
    {
      "inputs": [
        {
          "internalType": "uint256",
          "name": "_token",
          "type": "uint256"
        }
      ],
      "name": "tokenLevel",
      "outputs": [
        {
          "internalType": "uint256",
          "name": "",
          "type": "uint256"
        }
      ],
      "stateMutability": "view",
      "type": "function",
      "constant": true
    }
  ],
  "bytecode": "0x6080604052607b600b553480156200001657600080fd5b506040518060400160405280600b81526020017f466163746f7279204e46540000000000000000000000000000000000000000008152506040518060400160405280600381526020017f46544e000000000000000000000000000000000000000000000000000000000081525081600090805190602001906200009b929190620000bd565b508060019080519060200190620000b4929190620000bd565b505050620001d1565b828054620000cb906200019c565b90600052602060002090601f016020900481019282620000ef57600085556200013b565b82601f106200010a57805160ff19168380011785556200013b565b828001600101855582156200013b579182015b828111156200013a5782518255916020019190600101906200011d565b5b5090506200014a91906200014e565b5090565b5b80821115620001695760008160009055506001016200014f565b5090565b7f4e487b7100000000000000000000000000000000000000000000000000000000600052602260045260246000fd5b60006002820490506001821680620001b557607f821691505b602082108103620001cb57620001ca6200016d565b5b50919050565b61302d80620001e16000396000f3fe608060405234801561001057600080fd5b506004361061010b5760003560e01c80636352211e116100a2578063a22cb46511610071578063a22cb465146102e0578063ab8ece8b146102fc578063b88d4fde1461032c578063c87b56dd14610348578063e985e9c5146103785761010b565b80636352211e1461023257806370a08231146102625780638aa0fdad1461029257806395d89b41146102c25761010b565b806318160ddd116100de57806318160ddd146101aa57806323b872dd146101c857806342842e0e146101e45780634f64b2be146102005761010b565b806301ffc9a71461011057806306fdde0314610140578063081812fc1461015e578063095ea7b31461018e575b600080fd5b61012a60048036038101906101259190611c8a565b6103a8565b6040516101379190611cd2565b60405180910390f35b61014861048a565b6040516101559190611d86565b60405180910390f35b61017860048036038101906101739190611dde565b61051c565b6040516101859190611e4c565b60405180910390f35b6101a860048036038101906101a39190611e93565b6105a1565b005b6101b26106b8565b6040516101bf9190611ee2565b60405180910390f35b6101e260048036038101906101dd9190611efd565b6106c9565b005b6101fe60048036038101906101f99190611efd565b610729565b005b61021a60048036038101906102159190611dde565b610749565b60405161022993929190611f50565b60405180910390f35b61024c60048036038101906102479190611dde565b6108ad565b6040516102599190611e4c565b60405180910390f35b61027c60048036038101906102779190611f95565b61095e565b6040516102899190611ee2565b60405180910390f35b6102ac60048036038101906102a791906120f7565b610a15565b6040516102b99190611ee2565b60405180910390f35b6102ca610b10565b6040516102d79190611d86565b60405180910390f35b6102fa60048036038101906102f5919061219b565b610ba2565b005b61031660048036038101906103119190611dde565b610bb8565b6040516103239190611ee2565b60405180910390f35b6103466004803603810190610341919061227c565b610bd5565b005b610362600480360381019061035d9190611dde565b610c37565b60405161036f9190611d86565b60405180910390f35b610392600480360381019061038d91906122ff565b610d88565b60405161039f9190611cd2565b60405180910390f35b60007f80ac58cd000000000000000000000000000000000000000000000000000000007bffffffffffffffffffffffffffffffffffffffffffffffffffffffff1916827bffffffffffffffffffffffffffffffffffffffffffffffffffffffff1916148061047357507f5b5e139f000000000000000000000000000000000000000000000000000000007bffffffffffffffffffffffffffffffffffffffffffffffffffffffff1916827bffffffffffffffffffffffffffffffffffffffffffffffffffffffff1916145b80610483575061048282610e1c565b5b9050919050565b6060600080546104999061236e565b80601f01602080910402602001604051908101604052809291908181526020018280546104c59061236e565b80156105125780601f106104e757610100808354040283529160200191610512565b820191906000526020600020905b8154815290600101906020018083116104f557829003601f168201915b5050505050905090565b600061052782610e86565b610566576040517f08c379a000000000000000000000000000000000000000000000000000000000815260040161055d90612411565b60405180910390fd5b6004600083815260200190815260200160002060009054906101000a900473ffffffffffffffffffffffffffffffffffffffff169050919050565b60006105ac826108ad565b90508073ffffffffffffffffffffffffffffffffffffffff168373ffffffffffffffffffffffffffffffffffffffff160361061c576040517f08c379a0000000000000000000000000000000000000000000000000000000008152600401610613906124a3565b60405180910390fd5b8073ffffffffffffffffffffffffffffffffffffffff1661063b610ef2565b73ffffffffffffffffffffffffffffffffffffffff16148061066a575061066981610664610ef2565b610d88565b5b6106a9576040517f08c379a00000000000000000000000000000000000000000000000000000000081526004016106a090612535565b60405180910390fd5b6106b38383610efa565b505050565b60006106c46007610fb3565b905090565b6106da6106d4610ef2565b82610fc1565b610719576040517f08c379a0000000000000000000000000000000000000000000000000000000008152600401610710906125c7565b60405180910390fd5b61072483838361109f565b505050565b61074483838360405180602001604052806000815250610bd5565b505050565b60608060006008600085815260200190815260200160002060096000868152602001908152602001600020600a6000878152602001908152602001600020548280546107949061236e565b80601f01602080910402602001604051908101604052809291908181526020018280546107c09061236e565b801561080d5780601f106107e25761010080835404028352916020019161080d565b820191906000526020600020905b8154815290600101906020018083116107f057829003601f168201915b505050505092508180546108209061236e565b80601f016020809104026020016040519081016040528092919081815260200182805461084c9061236e565b80156108995780601f1061086e57610100808354040283529160200191610899565b820191906000526020600020905b81548152906001019060200180831161087c57829003601f168201915b505050505091509250925092509193909250565b6000806002600084815260200190815260200160002060009054906101000a900473ffffffffffffffffffffffffffffffffffffffff169050600073ffffffffffffffffffffffffffffffffffffffff168173ffffffffffffffffffffffffffffffffffffffff1603610955576040517f08c379a000000000000000000000000000000000000000000000000000000000815260040161094c90612659565b60405180910390fd5b80915050919050565b60008073ffffffffffffffffffffffffffffffffffffffff168273ffffffffffffffffffffffffffffffffffffffff16036109ce576040517f08c379a00000000000000000000000000000000000000000000000000000000081526004016109c5906126eb565b60405180910390fd5b600360008373ffffffffffffffffffffffffffffffffffffffff1673ffffffffffffffffffffffffffffffffffffffff168152602001908152602001600020549050919050565b600080610a226007610fb3565b90506000600a4233600b54604051602001610a3f93929190612774565b6040516020818303038152906040528051906020012060001c610a6291906127e0565b9050610a6e3383611305565b610a788286611323565b610a826007611397565b8460086000610a916007610fb3565b81526020019081526020016000209080519060200190610ab2929190611b7b565b508360096000610ac26007610fb3565b81526020019081526020016000209080519060200190610ae3929190611b7b565b5080600a6000610af36007610fb3565b815260200190815260200160002081905550819250505092915050565b606060018054610b1f9061236e565b80601f0160208091040260200160405190810160405280929190818152602001828054610b4b9061236e565b8015610b985780601f10610b6d57610100808354040283529160200191610b98565b820191906000526020600020905b815481529060010190602001808311610b7b57829003601f168201915b5050505050905090565b610bb4610bad610ef2565b83836113ad565b5050565b6000600a6000838152602001908152602001600020549050919050565b610be6610be0610ef2565b83610fc1565b610c25576040517f08c379a0000000000000000000000000000000000000000000000000000000008152600401610c1c906125c7565b60405180910390fd5b610c3184848484611519565b50505050565b6060610c4282610e86565b610c81576040517f08c379a0000000000000000000000000000000000000000000000000000000008152600401610c7890612883565b60405180910390fd5b6000600660008481526020019081526020016000208054610ca19061236e565b80601f0160208091040260200160405190810160405280929190818152602001828054610ccd9061236e565b8015610d1a5780601f10610cef57610100808354040283529160200191610d1a565b820191906000526020600020905b815481529060010190602001808311610cfd57829003601f168201915b505050505090506000610d2b611575565b90506000815103610d40578192505050610d83565b600082511115610d75578082604051602001610d5d9291906128df565b60405160208183030381529060405292505050610d83565b610d7e8461158c565b925050505b919050565b6000600560008473ffffffffffffffffffffffffffffffffffffffff1673ffffffffffffffffffffffffffffffffffffffff16815260200190815260200160002060008373ffffffffffffffffffffffffffffffffffffffff1673ffffffffffffffffffffffffffffffffffffffff16815260200190815260200160002060009054906101000a900460ff16905092915050565b60007f01ffc9a7000000000000000000000000000000000000000000000000000000007bffffffffffffffffffffffffffffffffffffffffffffffffffffffff1916827bffffffffffffffffffffffffffffffffffffffffffffffffffffffff1916149050919050565b60008073ffffffffffffffffffffffffffffffffffffffff166002600084815260200190815260200160002060009054906101000a900473ffffffffffffffffffffffffffffffffffffffff1673ffffffffffffffffffffffffffffffffffffffff1614159050919050565b600033905090565b816004600083815260200190815260200160002060006101000a81548173ffffffffffffffffffffffffffffffffffffffff021916908373ffffffffffffffffffffffffffffffffffffffff160217905550808273ffffffffffffffffffffffffffffffffffffffff16610f6d836108ad565b73ffffffffffffffffffffffffffffffffffffffff167f8c5be1e5ebec7d5bd14f71427d1e84f3dd0314c0f7b2291e5b200ac8c7c3b92560405160405180910390a45050565b600081600001549050919050565b6000610fcc82610e86565b61100b576040517f08c379a000000000000000000000000000000000000000000000000000000000815260040161100290612975565b60405180910390fd5b6000611016836108ad565b90508073ffffffffffffffffffffffffffffffffffffffff168473ffffffffffffffffffffffffffffffffffffffff16148061108557508373ffffffffffffffffffffffffffffffffffffffff1661106d8461051c565b73ffffffffffffffffffffffffffffffffffffffff16145b8061109657506110958185610d88565b5b91505092915050565b8273ffffffffffffffffffffffffffffffffffffffff166110bf826108ad565b73ffffffffffffffffffffffffffffffffffffffff1614611115576040517f08c379a000000000000000000000000000000000000000000000000000000000815260040161110c90612a07565b60405180910390fd5b600073ffffffffffffffffffffffffffffffffffffffff168273ffffffffffffffffffffffffffffffffffffffff1603611184576040517f08c379a000000000000000000000000000000000000000000000000000000000815260040161117b90612a99565b60405180910390fd5b61118f838383611633565b61119a600082610efa565b6001600360008573ffffffffffffffffffffffffffffffffffffffff1673ffffffffffffffffffffffffffffffffffffffff16815260200190815260200160002060008282546111ea9190612ae8565b925050819055506001600360008473ffffffffffffffffffffffffffffffffffffffff1673ffffffffffffffffffffffffffffffffffffffff16815260200190815260200160002060008282546112419190612b1c565b92505081905550816002600083815260200190815260200160002060006101000a81548173ffffffffffffffffffffffffffffffffffffffff021916908373ffffffffffffffffffffffffffffffffffffffff160217905550808273ffffffffffffffffffffffffffffffffffffffff168473ffffffffffffffffffffffffffffffffffffffff167fddf252ad1be2c89b69c2b068fc378daa952ba7f163c4a11628f55a4df523b3ef60405160405180910390a4611300838383611638565b505050565b61131f82826040518060200160405280600081525061163d565b5050565b61132c82610e86565b61136b576040517f08c379a000000000000000000000000000000000000000000000000000000000815260040161136290612be4565b60405180910390fd5b80600660008481526020019081526020016000209080519060200190611392929190611b7b565b505050565b6001816000016000828254019250508190555050565b8173ffffffffffffffffffffffffffffffffffffffff168373ffffffffffffffffffffffffffffffffffffffff160361141b576040517f08c379a000000000000000000000000000000000000000000000000000000000815260040161141290612c50565b60405180910390fd5b80600560008573ffffffffffffffffffffffffffffffffffffffff1673ffffffffffffffffffffffffffffffffffffffff16815260200190815260200160002060008473ffffffffffffffffffffffffffffffffffffffff1673ffffffffffffffffffffffffffffffffffffffff16815260200190815260200160002060006101000a81548160ff0219169083151502179055508173ffffffffffffffffffffffffffffffffffffffff168373ffffffffffffffffffffffffffffffffffffffff167f17307eab39ab6107e8899845ad3d59bd9653f200f220920489ca2b5937696c318360405161150c9190611cd2565b60405180910390a3505050565b61152484848461109f565b61153084848484611698565b61156f576040517f08c379a000000000000000000000000000000000000000000000000000000000815260040161156690612ce2565b60405180910390fd5b50505050565b606060405180602001604052806000815250905090565b606061159782610e86565b6115d6576040517f08c379a00000000000000000000000000000000000000000000000000000000081526004016115cd90612d74565b60405180910390fd5b60006115e0611575565b90506000815111611600576040518060200160405280600081525061162b565b8061160a8461181f565b60405160200161161b9291906128df565b6040516020818303038152906040525b915050919050565b505050565b505050565b611647838361197f565b6116546000848484611698565b611693576040517f08c379a000000000000000000000000000000000000000000000000000000000815260040161168a90612ce2565b60405180910390fd5b505050565b60006116b98473ffffffffffffffffffffffffffffffffffffffff16611b58565b15611812578373ffffffffffffffffffffffffffffffffffffffff1663150b7a026116e2610ef2565b8786866040518563ffffffff1660e01b81526004016117049493929190612de9565b6020604051808303816000875af192505050801561174057506040513d601f19601f8201168201806040525081019061173d9190612e4a565b60015b6117c2573d8060008114611770576040519150601f19603f3d011682016040523d82523d6000602084013e611775565b606091505b5060008151036117ba576040517f08c379a00000000000000000000000000000000000000000000000000000000081526004016117b190612ce2565b60405180910390fd5b805181602001fd5b63150b7a0260e01b7bffffffffffffffffffffffffffffffffffffffffffffffffffffffff1916817bffffffffffffffffffffffffffffffffffffffffffffffffffffffff191614915050611817565b600190505b949350505050565b606060008203611866576040518060400160405280600181526020017f3000000000000000000000000000000000000000000000000000000000000000815250905061197a565b600082905060005b6000821461189857808061188190612e77565b915050600a826118919190612ebf565b915061186e565b60008167ffffffffffffffff8111156118b4576118b3611fcc565b5b6040519080825280601f01601f1916602001820160405280156118e65781602001600182028036833780820191505090505b5090505b60008514611973576001826118ff9190612ae8565b9150600a8561190e91906127e0565b603061191a9190612b1c565b60f81b8183815181106119305761192f612ef0565b5b60200101907effffffffffffffffffffffffffffffffffffffffffffffffffffffffffffff1916908160001a905350600a8561196c9190612ebf565b94506118ea565b8093505050505b919050565b600073ffffffffffffffffffffffffffffffffffffffff168273ffffffffffffffffffffffffffffffffffffffff16036119ee576040517f08c379a00000000000000000000000000000000000000000000000000000000081526004016119e590612f6b565b60405180910390fd5b6119f781610e86565b15611a37576040517f08c379a0000000000000000000000000000000000000000000000000000000008152600401611a2e90612fd7565b60405180910390fd5b611a4360008383611633565b6001600360008473ffffffffffffffffffffffffffffffffffffffff1673ffffffffffffffffffffffffffffffffffffffff1681526020019081526020016000206000828254611a939190612b1c565b92505081905550816002600083815260200190815260200160002060006101000a81548173ffffffffffffffffffffffffffffffffffffffff021916908373ffffffffffffffffffffffffffffffffffffffff160217905550808273ffffffffffffffffffffffffffffffffffffffff16600073ffffffffffffffffffffffffffffffffffffffff167fddf252ad1be2c89b69c2b068fc378daa952ba7f163c4a11628f55a4df523b3ef60405160405180910390a4611b5460008383611638565b5050565b6000808273ffffffffffffffffffffffffffffffffffffffff163b119050919050565b828054611b879061236e565b90600052602060002090601f016020900481019282611ba95760008555611bf0565b82601f10611bc257805160ff1916838001178555611bf0565b82800160010185558215611bf0579182015b82811115611bef578251825591602001919060010190611bd4565b5b509050611bfd9190611c01565b5090565b5b80821115611c1a576000816000905550600101611c02565b5090565b6000604051905090565b600080fd5b600080fd5b60007fffffffff0000000000000000000000000000000000000000000000000000000082169050919050565b611c6781611c32565b8114611c7257600080fd5b50565b600081359050611c8481611c5e565b92915050565b600060208284031215611ca057611c9f611c28565b5b6000611cae84828501611c75565b91505092915050565b60008115159050919050565b611ccc81611cb7565b82525050565b6000602082019050611ce76000830184611cc3565b92915050565b600081519050919050565b600082825260208201905092915050565b60005b83811015611d27578082015181840152602081019050611d0c565b83811115611d36576000848401525b50505050565b6000601f19601f8301169050919050565b6000611d5882611ced565b611d628185611cf8565b9350611d72818560208601611d09565b611d7b81611d3c565b840191505092915050565b60006020820190508181036000830152611da08184611d4d565b905092915050565b6000819050919050565b611dbb81611da8565b8114611dc657600080fd5b50565b600081359050611dd881611db2565b92915050565b600060208284031215611df457611df3611c28565b5b6000611e0284828501611dc9565b91505092915050565b600073ffffffffffffffffffffffffffffffffffffffff82169050919050565b6000611e3682611e0b565b9050919050565b611e4681611e2b565b82525050565b6000602082019050611e616000830184611e3d565b92915050565b611e7081611e2b565b8114611e7b57600080fd5b50565b600081359050611e8d81611e67565b92915050565b60008060408385031215611eaa57611ea9611c28565b5b6000611eb885828601611e7e565b9250506020611ec985828601611dc9565b9150509250929050565b611edc81611da8565b82525050565b6000602082019050611ef76000830184611ed3565b92915050565b600080600060608486031215611f1657611f15611c28565b5b6000611f2486828701611e7e565b9350506020611f3586828701611e7e565b9250506040611f4686828701611dc9565b9150509250925092565b60006060820190508181036000830152611f6a8186611d4d565b90508181036020830152611f7e8185611d4d565b9050611f8d6040830184611ed3565b949350505050565b600060208284031215611fab57611faa611c28565b5b6000611fb984828501611e7e565b91505092915050565b600080fd5b600080fd5b7f4e487b7100000000000000000000000000000000000000000000000000000000600052604160045260246000fd5b61200482611d3c565b810181811067ffffffffffffffff8211171561202357612022611fcc565b5b80604052505050565b6000612036611c1e565b90506120428282611ffb565b919050565b600067ffffffffffffffff82111561206257612061611fcc565b5b61206b82611d3c565b9050602081019050919050565b82818337600083830152505050565b600061209a61209584612047565b61202c565b9050828152602081018484840111156120b6576120b5611fc7565b5b6120c1848285612078565b509392505050565b600082601f8301126120de576120dd611fc2565b5b81356120ee848260208601612087565b91505092915050565b6000806040838503121561210e5761210d611c28565b5b600083013567ffffffffffffffff81111561212c5761212b611c2d565b5b612138858286016120c9565b925050602083013567ffffffffffffffff81111561215957612158611c2d565b5b612165858286016120c9565b9150509250929050565b61217881611cb7565b811461218357600080fd5b50565b6000813590506121958161216f565b92915050565b600080604083850312156121b2576121b1611c28565b5b60006121c085828601611e7e565b92505060206121d185828601612186565b9150509250929050565b600067ffffffffffffffff8211156121f6576121f5611fcc565b5b6121ff82611d3c565b9050602081019050919050565b600061221f61221a846121db565b61202c565b90508281526020810184848401111561223b5761223a611fc7565b5b612246848285612078565b509392505050565b600082601f83011261226357612262611fc2565b5b813561227384826020860161220c565b91505092915050565b6000806000806080858703121561229657612295611c28565b5b60006122a487828801611e7e565b94505060206122b587828801611e7e565b93505060406122c687828801611dc9565b925050606085013567ffffffffffffffff8111156122e7576122e6611c2d565b5b6122f38782880161224e565b91505092959194509250565b6000806040838503121561231657612315611c28565b5b600061232485828601611e7e565b925050602061233585828601611e7e565b9150509250929050565b7f4e487b7100000000000000000000000000000000000000000000000000000000600052602260045260246000fd5b6000600282049050600182168061238657607f821691505b6020821081036123995761239861233f565b5b50919050565b7f4552433732313a20617070726f76656420717565727920666f72206e6f6e657860008201527f697374656e7420746f6b656e0000000000000000000000000000000000000000602082015250565b60006123fb602c83611cf8565b91506124068261239f565b604082019050919050565b6000602082019050818103600083015261242a816123ee565b9050919050565b7f4552433732313a20617070726f76616c20746f2063757272656e74206f776e6560008201527f7200000000000000000000000000000000000000000000000000000000000000602082015250565b600061248d602183611cf8565b915061249882612431565b604082019050919050565b600060208201905081810360008301526124bc81612480565b9050919050565b7f4552433732313a20617070726f76652063616c6c6572206973206e6f74206f7760008201527f6e6572206e6f7220617070726f76656420666f7220616c6c0000000000000000602082015250565b600061251f603883611cf8565b915061252a826124c3565b604082019050919050565b6000602082019050818103600083015261254e81612512565b9050919050565b7f4552433732313a207472616e736665722063616c6c6572206973206e6f74206f60008201527f776e6572206e6f7220617070726f766564000000000000000000000000000000602082015250565b60006125b1603183611cf8565b91506125bc82612555565b604082019050919050565b600060208201905081810360008301526125e0816125a4565b9050919050565b7f4552433732313a206f776e657220717565727920666f72206e6f6e657869737460008201527f656e7420746f6b656e0000000000000000000000000000000000000000000000602082015250565b6000612643602983611cf8565b915061264e826125e7565b604082019050919050565b6000602082019050818103600083015261267281612636565b9050919050565b7f4552433732313a2062616c616e636520717565727920666f7220746865207a6560008201527f726f206164647265737300000000000000000000000000000000000000000000602082015250565b60006126d5602a83611cf8565b91506126e082612679565b604082019050919050565b60006020820190508181036000830152612704816126c8565b9050919050565b6000819050919050565b61272661272182611da8565b61270b565b82525050565b60008160601b9050919050565b60006127448261272c565b9050919050565b600061275682612739565b9050919050565b61276e61276982611e2b565b61274b565b82525050565b60006127808286612715565b602082019150612790828561275d565b6014820191506127a08284612715565b602082019150819050949350505050565b7f4e487b7100000000000000000000000000000000000000000000000000000000600052601260045260246000fd5b60006127eb82611da8565b91506127f683611da8565b925082612806576128056127b1565b5b828206905092915050565b7f45524337323155524953746f726167653a2055524920717565727920666f722060008201527f6e6f6e6578697374656e7420746f6b656e000000000000000000000000000000602082015250565b600061286d603183611cf8565b915061287882612811565b604082019050919050565b6000602082019050818103600083015261289c81612860565b9050919050565b600081905092915050565b60006128b982611ced565b6128c381856128a3565b93506128d3818560208601611d09565b80840191505092915050565b60006128eb82856128ae565b91506128f782846128ae565b91508190509392505050565b7f4552433732313a206f70657261746f7220717565727920666f72206e6f6e657860008201527f697374656e7420746f6b656e0000000000000000000000000000000000000000602082015250565b600061295f602c83611cf8565b915061296a82612903565b604082019050919050565b6000602082019050818103600083015261298e81612952565b9050919050565b7f4552433732313a207472616e736665722066726f6d20696e636f72726563742060008201527f6f776e6572000000000000000000000000000000000000000000000000000000602082015250565b60006129f1602583611cf8565b91506129fc82612995565b604082019050919050565b60006020820190508181036000830152612a20816129e4565b9050919050565b7f4552433732313a207472616e7366657220746f20746865207a65726f2061646460008201527f7265737300000000000000000000000000000000000000000000000000000000602082015250565b6000612a83602483611cf8565b9150612a8e82612a27565b604082019050919050565b60006020820190508181036000830152612ab281612a76565b9050919050565b7f4e487b7100000000000000000000000000000000000000000000000000000000600052601160045260246000fd5b6000612af382611da8565b9150612afe83611da8565b925082821015612b1157612b10612ab9565b5b828203905092915050565b6000612b2782611da8565b9150612b3283611da8565b9250827fffffffffffffffffffffffffffffffffffffffffffffffffffffffffffffffff03821115612b6757612b66612ab9565b5b828201905092915050565b7f45524337323155524953746f726167653a2055524920736574206f66206e6f6e60008201527f6578697374656e7420746f6b656e000000000000000000000000000000000000602082015250565b6000612bce602e83611cf8565b9150612bd982612b72565b604082019050919050565b60006020820190508181036000830152612bfd81612bc1565b9050919050565b7f4552433732313a20617070726f766520746f2063616c6c657200000000000000600082015250565b6000612c3a601983611cf8565b9150612c4582612c04565b602082019050919050565b60006020820190508181036000830152612c6981612c2d565b9050919050565b7f4552433732313a207472616e7366657220746f206e6f6e20455243373231526560008201527f63656976657220696d706c656d656e7465720000000000000000000000000000602082015250565b6000612ccc603283611cf8565b9150612cd782612c70565b604082019050919050565b60006020820190508181036000830152612cfb81612cbf565b9050919050565b7f4552433732314d657461646174613a2055524920717565727920666f72206e6f60008201527f6e6578697374656e7420746f6b656e0000000000000000000000000000000000602082015250565b6000612d5e602f83611cf8565b9150612d6982612d02565b604082019050919050565b60006020820190508181036000830152612d8d81612d51565b9050919050565b600081519050919050565b600082825260208201905092915050565b6000612dbb82612d94565b612dc58185612d9f565b9350612dd5818560208601611d09565b612dde81611d3c565b840191505092915050565b6000608082019050612dfe6000830187611e3d565b612e0b6020830186611e3d565b612e186040830185611ed3565b8181036060830152612e2a8184612db0565b905095945050505050565b600081519050612e4481611c5e565b92915050565b600060208284031215612e6057612e5f611c28565b5b6000612e6e84828501612e35565b91505092915050565b6000612e8282611da8565b91507fffffffffffffffffffffffffffffffffffffffffffffffffffffffffffffffff8203612eb457612eb3612ab9565b5b600182019050919050565b6000612eca82611da8565b9150612ed583611da8565b925082612ee557612ee46127b1565b5b828204905092915050565b7f4e487b7100000000000000000000000000000000000000000000000000000000600052603260045260246000fd5b7f4552433732313a206d696e7420746f20746865207a65726f2061646472657373600082015250565b6000612f55602083611cf8565b9150612f6082612f1f565b602082019050919050565b60006020820190508181036000830152612f8481612f48565b9050919050565b7f4552433732313a20746f6b656e20616c7265616479206d696e74656400000000600082015250565b6000612fc1601c83611cf8565b9150612fcc82612f8b565b602082019050919050565b60006020820190508181036000830152612ff081612fb4565b905091905056fea26469706673582212202c520417d123b545d13970456091a57768f15a1a58cc514ddf00563a25580ee264736f6c634300080d0033",
  "immutableReferences": {},
  "source": "// SPDX-License-Identifier: MIT\npragma solidity >=0.4.21 <8.10.0;\n\nimport \"openzeppelin-solidity/contracts/token/ERC721/extensions/ERC721URIStorage.sol\";\nimport \"openzeppelin-solidity/contracts/utils/Counters.sol\";\n\ncontract OppayNFT is ERC721URIStorage {\n  using Counters for Counters.Counter;\n  Counters.Counter private _tokenIds;\n  mapping(uint256 => string) _tokenUrls;\n  mapping(uint256 => string) _tokenNames;\n  mapping(uint256 => uint256) _tokenLevels;\n  uint256 _randNonce = 123;\n\n  constructor() ERC721(\"Factory NFT\", \"FTN\") {\n  }\n\n  function mint(string memory _tokenURI, string memory _tokenName) public returns (uint256) {\n    uint256 newItemId =  _tokenIds.current();\n    uint256 _tokenLevel = uint256(keccak256(abi.encodePacked(block.timestamp, msg.sender, _randNonce))) % 10;\n    _safeMint(msg.sender, newItemId);\n    _setTokenURI(newItemId, _tokenURI);\n    _tokenIds.increment();\n    _tokenUrls[_tokenIds.current()] = _tokenURI;\n    _tokenNames[_tokenIds.current()] = _tokenName;\n\n    _tokenLevels[_tokenIds.current()] = _tokenLevel;\n\n    return newItemId;\n  }\n\n  function totalSupply() public view returns (uint256) {\n    return _tokenIds.current();\n  }\n\n  function tokens(uint256 _token) public view returns (string memory, string memory, uint256) {\n    return (_tokenUrls[_token], _tokenNames[_token], _tokenLevels[_token]);\n  }\n\n  function tokenLevel(uint256 _token) public view returns (uint256) {\n    return _tokenLevels[_token];\n  }\n}\n",
  "sourcePath": "/Users/ryuga.irie/Work/dapps-nft/contracts/OppayNFT.sol",
  "compiler": {
    "name": "solc",
    "version": "0.8.13+commit.abaa5c0e.Emscripten.clang"
  },
  "schemaVersion": "3.4.7",
  "updatedAt": "2022-06-15T04:14:51.175Z",
  "networkType": "ethereum",
  "devdoc": {
    "kind": "dev",
    "methods": {
      "approve(address,uint256)": {
        "details": "See {IERC721-approve}."
      },
      "balanceOf(address)": {
        "details": "See {IERC721-balanceOf}."
      },
      "getApproved(uint256)": {
        "details": "See {IERC721-getApproved}."
      },
      "isApprovedForAll(address,address)": {
        "details": "See {IERC721-isApprovedForAll}."
      },
      "name()": {
        "details": "See {IERC721Metadata-name}."
      },
      "ownerOf(uint256)": {
        "details": "See {IERC721-ownerOf}."
      },
      "safeTransferFrom(address,address,uint256)": {
        "details": "See {IERC721-safeTransferFrom}."
      },
      "safeTransferFrom(address,address,uint256,bytes)": {
        "details": "See {IERC721-safeTransferFrom}."
      },
      "setApprovalForAll(address,bool)": {
        "details": "See {IERC721-setApprovalForAll}."
      },
      "supportsInterface(bytes4)": {
        "details": "See {IERC165-supportsInterface}."
      },
      "symbol()": {
        "details": "See {IERC721Metadata-symbol}."
      },
      "tokenURI(uint256)": {
        "details": "See {IERC721Metadata-tokenURI}."
      },
      "transferFrom(address,address,uint256)": {
        "details": "See {IERC721-transferFrom}."
      }
    },
    "version": 1
  },
  "userdoc": {
    "kind": "user",
    "methods": {},
    "version": 1
  }
}