{
  "contractName": "SimpleStorage",
  "abi": [
    {
      "anonymous": false,
      "inputs": [
        {
          "indexed": false,
          "internalType": "address",
          "name": "accountId",
          "type": "address"
        },
        {
          "indexed": false,
          "internalType": "uint256",
          "name": "eth",
          "type": "uint256"
        }
      ],
      "name": "Send",
      "type": "event"
    },
    {
      "inputs": [
        {
          "internalType": "uint256",
          "name": "x",
          "type": "uint256"
        }
      ],
      "name": "set",
      "outputs": [],
      "stateMutability": "nonpayable",
      "type": "function"
    },
    {
      "inputs": [
        {
          "internalType": "uint256",
          "name": "x",
          "type": "uint256"
        }
      ],
      "name": "setTest",
      "outputs": [],
      "stateMutability": "nonpayable",
      "type": "function"
    },
    {
      "inputs": [
        {
          "internalType": "address",
          "name": "_receiver",
          "type": "address"
        }
      ],
      "name": "send",
      "outputs": [],
      "stateMutability": "payable",
      "type": "function"
    },
    {
      "inputs": [],
      "name": "get",
      "outputs": [
        {
          "internalType": "uint256",
          "name": "",
          "type": "uint256"
        }
      ],
      "stateMutability": "view",
      "type": "function"
    },
    {
      "inputs": [],
      "name": "getTest",
      "outputs": [
        {
          "internalType": "uint256",
          "name": "",
          "type": "uint256"
        }
      ],
      "stateMutability": "view",
      "type": "function"
    }
  ],
  "bytecode": "0x608060405234801561001057600080fd5b506102de806100206000396000f3fe60806040526004361061004a5760003560e01c80633e58c58c1461004f57806360fe47b11461006b5780636ca1f933146100945780636d4ce63c146100bd578063a8cd0a80146100e8575b600080fd5b610069600480360381019061006491906101ee565b610113565b005b34801561007757600080fd5b50610092600480360381019061008d9190610251565b610164565b005b3480156100a057600080fd5b506100bb60048036038101906100b69190610251565b61016e565b005b3480156100c957600080fd5b506100d2610178565b6040516100df919061028d565b60405180910390f35b3480156100f457600080fd5b506100fd610181565b60405161010a919061028d565b60405180910390f35b60008190508073ffffffffffffffffffffffffffffffffffffffff166108fc60059081150290604051600060405180830381858888f1935050505015801561015f573d6000803e3d6000fd5b505050565b8060008190555050565b8060018190555050565b60008054905090565b6000600154905090565b600080fd5b600073ffffffffffffffffffffffffffffffffffffffff82169050919050565b60006101bb82610190565b9050919050565b6101cb816101b0565b81146101d657600080fd5b50565b6000813590506101e8816101c2565b92915050565b6000602082840312156102045761020361018b565b5b6000610212848285016101d9565b91505092915050565b6000819050919050565b61022e8161021b565b811461023957600080fd5b50565b60008135905061024b81610225565b92915050565b6000602082840312156102675761026661018b565b5b60006102758482850161023c565b91505092915050565b6102878161021b565b82525050565b60006020820190506102a2600083018461027e565b9291505056fea26469706673582212201bbf98d365d826cd93fea0def9430ee66a0d68637d1d64a0271503174f51d48b64736f6c634300080d0033",
  "immutableReferences": {},
  "source": "// SPDX-License-Identifier: MIT\npragma solidity >=0.4.21 <8.10.0;\n\ncontract SimpleStorage {\n  uint storedData;\n  uint test;\n  event Send(address accountId, uint eth);\n\n  function set(uint x) public {\n    storedData = x;\n  }\n  function setTest(uint x) public {\n    test = x;\n  }\n\n  function send(address _receiver) payable public {\n    address payable payable_addr = payable(_receiver);\n    payable_addr.transfer(5);\n  }\n\n  function get() public view returns (uint) {\n    return storedData;\n  }\n  function getTest() public view returns (uint) {\n    return test;\n  }\n}\n",
  "sourcePath": "/Users/ryuga.irie/Work/dapps-nft/contracts/SimpleStorage.sol",
  "compiler": {
    "name": "solc",
    "version": "0.8.13+commit.abaa5c0e.Emscripten.clang"
  },
  "schemaVersion": "3.4.7",
  "updatedAt": "2022-06-14T08:00:24.133Z",
  "devdoc": {
    "kind": "dev",
    "methods": {},
    "version": 1
  },
  "userdoc": {
    "kind": "user",
    "methods": {},
    "version": 1
  }
}